:020000040800F2
:10000000200A00203D010008A9220008F320000872
:1000100000000000000000000000000000000000E0
:10002000000000000000000000000000E9260008B9
:100030000000000000000000E7260008EB26000892
:100040004F0100084F0100084F0100084F01000850
:100050004F0100084F0100084F0100084F01000840
:10006000000000004F0100084F0100084F01000888
:100070004F0100084F0100084F0100084F01000820
:100080004F01000800000000000000004F010008C0
:10009000000000004F0100084F0100084F01000858
:1000A000000000004F01000800000000192E0008A9
:1000B0000348854600F09EF900480047693C000867
:1000C000200A0020084B19680868203080F309884E
:1000D000022080F31488BFF36F8F3FBCAE4608BC8C
:1000E00004BC62B6184700003C020020EFF3108009
:1000F00072B6704780F310887047EFF309800E4B9B
:100100001A6820381060F0C044464D4656465F4697
:10011000F0C008B572B603F0BDFE62B60CBC116843
:1001200008681030F0C8A046A946B246BB4680F326
:1001300009882038F0C818473C020020044880474E
:1001400004480047FEE7FEE7FEE7FEE7FEE7FEE7BE
:1001500079270008B100000830B50B4601460020A1
:100160002022012409E00D46D5409D4205D31D46BD
:100170009540491B2546954040191546521E002DB5
:10018000F1DC30BD70B500242546002801DA0124D9
:100190004042002901DA01254942FFF7DDFFAC4268
:1001A00000D04042002C00D0494270BD10B5202A3A
:1001B00004DB0846203AD040002110BD0B46D34056
:1001C000D0402024A21A91400843194610BDD2B253
:1001D00001E00270401C491EFBD270470022F6E786
:1001E00010B513460A4604461946FFF7F0FF2046AD
:1001F00010BD0000F0B51FB488B00B990998002419
:1002000048400999C00F490049080991C0070B9956
:100210000090490049080B9109990898A64608439F
:100220001CD00B990A98084318D009980124400063
:10023000420D4800410D099824050003000B20439E
:1002400009900B980003000B20430B9050181C4999
:100250004018002201901446104605E00020014697
:100260000DB0F0BD032801DA034600E003239C46ED
:10027000C11A0AAE0AE05F0008ADED5B4F00F75B04
:100280007D430027AA187C41491C5B1E6145F2DDB5
:10029000410004AB5A522104120C0A43240C401CA6
:1002A0000828DFDB019802900099704601910090C8
:1002B000059B049A0799069800F049F8D0E70000DA
:1002C0000DFCFFFF0EB5C217C10F5040CA07401802
:1002D0000021054B0293019200910A460B4600F063
:1002E00036F803B000BD00003304000070B5CD0F38
:1002F0004A0009030123090B1B0519430B4BED07AA
:100300000024520D9A4201DA002070BD074B3433AD
:100310009A4203DC9A1AFFF749FF02E00449511898
:1003200088402C43F1D0404270BD0000FF03000024
:10033000CDFBFFFF10B5002B08DA0024401C614103
:1003400092185B411A4301D14008400010BDF0B53E
:100350001FB482B005460C0003D0084602F0A4FD8D
:1003600002E002F0A1FD203002460090214628461E
:1003700000F052F8049B059A04460F4618431143B7
:10038000084314D0184610431BD0009840210A1A85
:1003900018460599FFF70AFF05460E46009A05998B
:1003A000049800F039F8084305D0012004E0204605
:1003B000394607B0F0BD0020C11705430E432C435A
:1003C000374300990E986305401A7905E40A002224
:1003D0000C43FD0A0A3002D500200146E9E7010579
:1003E000101969410C9C0D9D00196941FFF7A2FF8E
:1003F000DFE70000064C0125064E05E0E36807CC68
:100400002B430C3C98471034B442F7D3FFF754FE0B
:10041000F04800081049000810B5202A04DB014606
:10042000203A9140002010BD914020239C1A0346A1
:10043000E3401943904010BD30B58C180278401C41
:1004400013071B0F01D10378401C120906D1027853
:10045000401C03E005780D70401C491C5B1EF9D15F
:1004600001E00B70491C521EFBD1A142E6D30020D3
:1004700030BD000038B504460025002000902068FB
:1004800080688007800F01280ED120680068C007AF
:10049000C00F002806D12068C0680121C9030840A8
:1004A000884201D1012000E00020002843D12068CB
:1004B000806822490840002801D1012000E0002086
:1004C000002809D1606C102108436064A06C0121F0
:1004D0000843A064012038BD2068806801210843DA
:1004E00021688860164917480068FFF735FE0090BC
:1004F00002E00098401E009000980028F9D100F01A
:10050000F3FD05460EE000F0EFFD401B022809D97F
:10051000606C102108436064A06C01210843A06452
:100520000120D8E720680068C007C00F01214840BB
:1005300048400028E7D00020CDE7000017000080E9
:1005400040420F000001002000B587B0142102A82E
:10055000FFF744FE00BF124840690121C904084367
:100560000F494861084640690121C90408400190CB
:1005700000BF00BF0022C9120920C00600F0ADFD77
:10058000FF2001300290012003900020049005908C
:1005900002A90920C00600F0A3FC07B000BD0000BE
:1005A0000010024010B500240920C0060068C021D8
:1005B00088430921C906086008460068086004E00D
:1005C000601CC4B2012002F03DFD08210920C006D4
:1005D00000F076FD002801D0C82CF1DBC82C01DB2F
:1005E000012010BD002404E0601CC4B2012002F010
:1005F00029FD08210920C00600F062FD002801D174
:10060000F02CF1DBF02C01DB0120EAE70020E8E729
:10061000F0B585B000F0D2F800F0AAF8FFF7C2FFFD
:10062000CC2000F0D7F8BE2000F0D4F800F08EF80F
:10063000074600F08BF80446072C05DDE043C4B202
:10064000F843C7B2002600E001262546280205B27D
:10065000E81905B22846FFF735FE0022084B019144
:100660000090FFF7C7FD03910290FFF73FFE05B230
:10067000002E02D0284605B0F0BD684200B2FAE76D
:100680000000E43F00B587B0142102A8FFF7A6FDE3
:1006900000BF0F4840690121490408430C494861E3
:1006A00008464069012149040840019000BF00BF8D
:1006B000082002900120039003200590012004905F
:1006C00002A90920C00600F00BFC07B000BD000025
:1006D0000010024010B50920C0060068C021884300
:1006E0000921C9060860084600684021084309211D
:1006F000C9060860002208210920C00600F0EDFCB0
:10070000022002F09FFC012208210920C00600F00F
:10071000E4FC0920C0060068C02188430921C906FD
:1007200008600846006808600C2002F08BFC082175
:100730000920C00600F0C4FC002801D0012400E01C
:100740000024322002F07EFC204610BD70B5002649
:10075000012508E0FFF7BEFF0446E00171100843E1
:10076000C6B2681CC5B2082DF4DD304670BD00006D
:1007700010B50920C0060068C02188430921C906B8
:10078000086008460068402108430921C90608603E
:10079000002208210920C00600F09FFC064802F054
:1007A00051FC012208210920C00600F096FC0F2010
:1007B00002F048FC10BD0000EE02000010B5FFF78B
:1007C000D7FFFFF7EFFECC2000F004F8442000F044
:1007D00001F810BD70B504460920C0060068C021AC
:1007E00088430921C906086008460068402108437B
:1007F0000921C906086001252BE0E607F60F641001
:10080000002E12D0002208210920C00600F065FC4D
:10081000022002F017FC012208210920C00600F086
:100820005CFC3C2002F00EFC11E0002208210920B3
:10083000C00600F052FC3C2002F004FC012208211A
:100840000920C00600F049FC022002F0FBFB681CF6
:10085000C5B2082DD1DD70BD72B600BFFEE7000045
:10086000F0B5024600250326B6050868B04200D15F
:1008700000BF00BF4020805C012801D10220F0BDF4
:1008800001264020865400BF10688068042630404E
:10089000800800283ED11068C068244E3040166899
:1008A000F0600E79B606086830431668F668304383
:1008B0001668F060CB681668F66818273E40F608A0
:1008C0007600B3400C691668F6683E40F60876007C
:1008D000B4401068006A164E3040166830621068E6
:1008E000006A1E0426433043166830628020166872
:1008F00030608868012806D110684068802630433F
:10090000166870600BE0106840688026B043166877
:10091000706004E0506C202630435064012500BF15
:1009200000264020865400BF2846A8E7FFFF3F83EB
:1009300000F000F0F8B504460D46002600200090B7
:1009400001210907A06B884215D0A06B012812D0A5
:10095000A06B02280FD0A06B03280CD0A06B04283A
:1009600009D0A06B052806D0A06B062803D0A06B89
:10097000072800D000BF00BF4020005D012801D142
:100980000220F8BD01214020015500BF2068806889
:1009900004210840800800287ED14D4968688842BB
:1009A00064D02068806A2A78012191400843216838
:1009B000886201210907A06B884229D0A06B012819
:1009C00026D0A06B022823D0A06B032820D0A06BD8
:1009D00004281DD0A06B05281AD0A06B062817D0BC
:1009E000A06B072814D0A868216849694907490FF6
:1009F00088420DD020684069C008C0002168486165
:100A000020684069297A4907490F084321684861ED
:100A10002868102805D02868112802D028681228D4
:100A20004FD12C4880682968102901D1C90407E0FA
:100A30002968112902D10121890501E00121090656
:100A4000084324498860286810283AD1224923485D
:100A50000068FFF781FB0A214843009002E00098FC
:100A6000401E009000980028F9D12AE02068816A91
:100A70002A780120904081432068816228681028EC
:100A800005D02868112802D02868122819D11148E9
:100A900080682968102900E00EE001D1C90407E050
:100AA0002968112902D10121890501E001210906E6
:100AB00088430849886004E0606C20210843606432
:100AC000012600BF00214020015500BF304658E7F5
:100AD000011000000027014040420F0000010020EB
:100AE00001460868006C704770B504460026002572
:100AF000002C01D1012070BD606C002806D1A064DB
:100B0000002140200155204600F0CEF8606C1021F5
:100B1000084000287ED1002EFCD120688068042186
:100B2000084080080028F5D1606C890188430221C3
:100B300008436064206880688007800F01280DD119
:100B400020680068C007C00F002805D12068C06871
:100B500089030840884201D1012000E000200028DC
:100B60000FD12068C06818218843A1680843216814
:100B7000C8602068006980008008616808432168B7
:100B800008612068C068464908402168C860A069BB
:100B90008003E169C9030843216A49030843616B83
:100BA000012902D00121090300E000210843E16886
:100BB00008432169022901D1042100E000210843F2
:100BC000216B490008430543606A01280ED1206A61
:100BD000002803D101200004054307E0606C2021B8
:100BE00008436064A06C01210843A064FF21C23166
:100BF000A06A884203D0E16AA06A084305432068DE
:100C0000C06828432168C86001210907A06B884299
:100C100016D000E03DE0A06B012811D0A06B0228A7
:100C20000ED0A06B03280BD0A06B042808D0A06BBB
:100C3000052805D0A06B062802D0A06B07280DD18F
:100C400020684069C008C000216848612068406988
:100C5000218F4907490F0843216848612068C0680F
:100C600010490840A84208D10020A064606C02210D
:100C7000884301210843606410E0606C02218843CE
:100C8000102108436064A06C01210843A064012680
:100C900004E0606C102108436064012630462AE7B6
:100CA0001902FEFFE7FF3F8310B586B0044614210A
:100CB00001A8FFF793FA1B49206888422FD100BF93
:100CC00019488069491508431749886108468069B1
:100CD00049150840009000BF00BF00BF124840699E
:100CE0000902084310494861084640690121490446
:100CF0000840009000BF00BF012001900320029037
:100D00000020039001A90920C00600F0E9F80022A4
:100D100011460C2000F046FA0C2000F037FA06B01D
:100D200010BD00000024014000100240F8B5044648
:100D30000D466069082801D1082711E02068C068C5
:100D4000C007C00F00280AD0606C202108436064EF
:100D500000BF00214020015500BF0120F8BD0C2735
:100D600000F0C2F9064614E0681C002811D0002DDE
:100D700004D000F0B9F9801BA8420AD9606C0421A4
:100D80000843606400BF00214020015500BF0320DC
:100D9000E4E72068006838400028E5D0606C012155
:100DA0004902084360642068C06803218902084042
:100DB000002825D1206A002822D120680068082157
:100DC000084008281CD12068806804210840800859
:100DD00000280DD1206840680C21884321684860B4
:100DE000606CFF210131884301210843606407E002
:100DF000606C202108436064A06C01210843A0645A
:100E0000A069002802D10C20216808600020A5E715
:100E100070B50446002520688068042108408008D9
:100E200000282BD100BF4020005D012801D1022005
:100E300070BD01214020015500BFE069012803D0A9
:100E40002046FFF717FB0546002D18D1606C0D49B1
:100E50000840FF210131084360640020A06400BF06
:100E600000214020015500BF1C2021680860206837
:100E70008068042108432168886000E00225284634
:100E8000D6E70000FEF1FFFF70B5044600252120E3
:100E9000005D022803D00420A06301251EE0206825
:100EA00000680E21884321680860206800684008B7
:100EB0004000216808600120216C8840E16B486097
:100EC00001212120015500BF00212020015500BF34
:100ED000606B002802D02046616B8847284670BDB1
:100EE00078B50346002200240020D9E00126964070
:100EF0000D6835402C46002C7ED04D68022D02D066
:100F00004D68122D15D1D508AE001D462035A859C3
:100F10005507EE0E0F25B5400646AE433046560740
:100F2000F60E0D69B5402843D508AD001E462036A3
:100F30007051186856000325B5400646AE4330464A
:100F40000D79AD07AD0F5600B540284318604D68C8
:100F5000012D08D04D68022D05D04D68112D02D00D
:100F60004D68122D18D1986856000325B5400646E5
:100F7000AE4330465600CD68B54028439860586867
:100F8000012595400646AE43304610264D68354053
:100F90002D09954028435860D86856000325B54070
:100FA0000646AE43304656008D68B5402843D860AB
:100FB000012636074D683540B54270D100BF3B4D24
:100FC000AD6901263543394EB5613546AD69ED074A
:100FD000ED0F009500BF00BF354D9608B600A8592B
:100FE00095072E0F0F25B5400646AE43304609251E
:100FF000ED06AB4203D100E051E000250AE02D4DA3
:10100000AB4201D1012505E02B4DAB4201D10225B8
:1010100000E005259607360FB5402843244D960875
:10102000B600A851254D28680546A5432846012647
:1010300036044D683540B54202D105462543284661
:101040001E4D286068680546A5432846012676049B
:101050004D683540B54202D1054625432846174D17
:101060006860A8680546A5432846012636054D68F0
:101070003540B54202D10546254328460F4DA860AC
:10108000E8680546A5432846012676054D683540A3
:10109000B54202D1054625432846084DE860521C5A
:1010A0000D68D540002D00D020E778BD001002402B
:1010B0000800014000040048000800480004014006
:1010C000024613690B40002B01D0012000E00020F4
:1010D000704742694A4042617047002A01D08161ED
:1010E00000E081627047000001480068704700001E
:1010F000FC00002002480068401C0149086070475D
:10110000FC00002010B5064800681021084304497F
:101110000860002000F006F800F018F8002010BD6C
:101120000020024070B5044600F0C4F906467D2157
:10113000C900FFF711F8054600F0ECFC002221463B
:10114000501E00F02FF8002070BD000008B500BF51
:101150000D488069012108430B4988610846806970
:10116000C007C00F009000BF00BF00BF0846C069A5
:10117000090408430449C8610846C06909040840D5
:10118000009000BF00BF08BD0010024000BFC206B3
:10119000D20E01219140024A116000BF7047000049
:1011A00000E100E070B504460D461646294620468B
:1011B00001F088F870BD0000F8B50446002600254F
:1011C000012109042068084088427AD100274B4851
:1011D000C0690903084000280DD100BF4748C06915
:1011E00008434649C8610846C069090408400090A0
:1011F00000BF00BF012742480068FF2101310840BD
:10120000002816D13E48006808433D490860FFF7B2
:101210006BFF064606E0FFF767FF801B642801D9D5
:101220000320F8BD36480068FF210131084000283E
:10123000F1D03248006A0321090208400546002D1A
:101240002DD060680840A84229D02C48006A884305
:1012500005462A48006A0121090408432749086213
:101260000846006A012109048843244908620846A7
:101270000562E807C00F002811D0FFF735FF0646CA
:1012800007E0FFF731FF801B1E49884201D9032088
:10129000C7E71A48006A022108400028F1D0174821
:1012A000006A032109028843616808431349086200
:1012B000012F05D10846C069090488430F49C86158
:1012C00000BF2078C007C00F002807D00B48006B74
:1012D00080088000A168084308490863202120682D
:1012E0000840202807D10548006B10218843E16899
:1012F000084302490863002093E700000010024001
:1013000000700040881300007047000070B504466C
:101310000D4600265D480068C007C00FA8420ED2E7
:101320005A48006840084000284358490860084669
:101330000068C007C00FA84201D0012070BD022183
:1013400020680840022807D151484068F0218843AE
:10135000A16808434E4948602078C007C00F0028A4
:101360005FD06068012808D149480068012149041C
:101370000840002815D10120E0E76068022808D164
:1013800043480068012149060840002809D101208E
:10139000D4E73F48006802210840002801D101201D
:1013A000CCE73B48406880088000616808433849C2
:1013B0004860FFF799FE0646606801280FD107E0F4
:1013C000FFF792FE801B3349884201D90320B5E71D
:1013D0002F4840680C2108400428F1D121E06068C2
:1013E00002280FD107E0FFF77FFE801B29498842C2
:1013F00001D90320A2E7264840680C2108400828AC
:10140000F1D10EE007E0FFF76FFE801B2149884213
:1014100001D9032092E71E4840680C2108400028AB
:10142000F1D11A480068C007C00FA8420ED917486A
:1014300000684008400028431449086008460068D6
:10144000C007C00FA84201D0012077E7042120681F
:101450000840042808D10E48406807210902884343
:10146000E16808430A49486000F03CF808494968C7
:10147000F02211400909084A515CC8400749086038
:101480000020FFF74FFE002058E700000020024038
:101490000010024088130000C04000080001002036
:1014A000034800680121C9040843014908607047E6
:1014B0000010024001480068704700000001002051
:1014C00000B5FFF7F7FF05494968072212021140EE
:1014D000090A034A515CC84000BD000000100240E8
:1014E000D0400008F0B589B024A001460EC9C068FC
:1014F00005AC0EC4089025A001460EC9C06801AC19
:101500000EC404900024002700250026002000902F
:10151000224844680C202040002827D0042802D00C
:10152000082822D102E01E48009022E00F2080040B
:101530002040800C05A90E5C1848C06A0007000F07
:1015400001A90F5C01200004204001210904884208
:1015500006D139461248FEF7FFFD7043054602E00A
:10156000104835464543009503E000BF0C48009005
:1015700000BF00BF009809B0F0BD000002030405E1
:10158000060708090A0B0C0D0E0F101001020304C8
:1015900005060708090A0B0C0D0E0F10001002407B
:1015A00000127A0000093D0010B5064880688021CD
:1015B0000840802804D1FFF7A7FE802001498872E7
:1015C00010BD000000100240F8B504460025207848
:1015D000C007C00F002871D0F94840680C210840AE
:1015E00004280BD0F64840680840082812D1F44877
:1015F000406801210904084088420BD1F048006886
:1016000001214904084000286BD06068002868D197
:101610000120F8BD00BF6068012807D1E8480068D4
:10162000012109040843E649086031E060680028A8
:101630000ED1E3480068012109048843E0490860AD
:1016400008460068012189048843DD4908601FE0DD
:10165000606805280ED1DA48006801218904084332
:10166000D749086008460068012109040843D449A5
:1016700008600DE0D2480068012109048843D04980
:10168000086008460068012189048843CC49086045
:1016900000BF6068002812D0FFF726FD054606E06F
:1016A000FFF722FD401B642801D90320B1E7C4489D
:1016B00000680121490408400028F1D011E0FFF73B
:1016C00013FD054606E0FFF70FFD401B642801D916
:1016D00003209EE7BA480068012149040840002819
:1016E000F1D1022120680840022861D1B448406845
:1016F0000C21084000280BD0B14840680840082859
:101700001BD1AF484068012109040840002814D1CA
:10171000AB48006802210840002804D0E068012896
:1017200001D0012075E7A6480068F82188432169A7
:10173000C9000843A24908603AE0E068002820D0C8
:101740009F480068012108439D490860FFF7CCFCD1
:10175000054606E0FFF7C8FC401B022801D903201C
:1017600057E797480068022108400028F2D09448C3
:101770000068F82188432169C9000843904908603E
:1017800016E08F480068400840008D490860FFF768
:10179000ABFC054606E0FFF7A7FC401B022801D979
:1017A000032036E786480068022108400028F2D16D
:1017B000082120680840082831D1E069002817D0A6
:1017C0007F48406A012108437D494862FFF78CFC4D
:1017D000054606E0FFF788FC401B022801D90320DC
:1017E00017E77748406A022108400028F2D016E047
:1017F0007348406A4008400071494862FFF774FC32
:10180000054606E0FFF770FC401B022801D90320C3
:10181000FFE66B48406A022108400028F2D104210B
:1018200020680840042871D100266548C0698906EF
:10183000084000280DD100BF6148C06908436049D5
:10184000C8610846C06909040840009000BF00BF95
:1018500001265C480068FF2101310840002816D1AC
:1018600058480068084357490860FFF73DFC0546A3
:1018700006E0FFF739FC401B642801D90320C8E6C5
:1018800050480068FF21013108400028F1D000BF16
:10189000A068012806D14A48006A01210843484946
:1018A00008622BE0A06800280CD14548006A400877
:1018B0004000434908620846006A042188434049C1
:1018C00008621BE0A06805280CD13D48006A04218D
:1018D00008433B4908620846006A01210843384929
:1018E00008620BE03648006A40084000344908624C
:1018F0000846006A042188433149086200BFA06895
:10190000002813D0FFF7F0FB054608E029E0FFF7B9
:10191000EBFB401B2C49884201D9032079E628487B
:10192000006A022108400028F1D011E0FFF7DCFB3B
:10193000054607E0FFF7D8FB401B2349884201D941
:10194000032066E61E48006A022108400028F1D103
:10195000012E05D11A48C069310788431849C8616A
:1019600000BF10212068084010285FD1606901285D
:101970002CD11348406B04210843114948630846A1
:10198000406B012108430E494863FFF7ADFB054654
:1019900006E0FFF7A9FB401B022801D9032038E627
:1019A0000748406B022108400028F2D00448406BF1
:1019B000F8218843A169C90008430149486335E01B
:1019C0000010024000700040881300006069401D54
:1019D00000280FD14E48406B042188434C4948638E
:1019E0000846406BF8218843A169C900084348496B
:1019F00048631BE04648406B042108434449486360
:101A00000846406B400840004863FFF76DFB054601
:101A100006E0FFF769FB401B022801D90320F8E527
:101A20003B48406B022108400028F2D1206A002880
:101A30006CD0374840680C210840082864D0206AE0
:101A4000022847D1324800680121090688433049FD
:101A50000860FFF749FB054606E0FFF745FB401B22
:101A6000022801D90320D4E529480068012149064C
:101A700008400028F1D100BF2548C06A00090001D4
:101A8000E16A08432249C862616AA06A08432049A2
:101A900049683D221204914308431D49486000BF34
:101AA0000846006801210906084319490860FFF744
:101AB0001BFB054606E0FFF717FB401B022801D978
:101AC0000320A6E5124800680121490608400028C5
:101AD000F1D01BE00E4800680121090688430C493B
:101AE0000860FFF701FB054606E0FFF7FDFA401B23
:101AF000022801D903208CE5054800680121490628
:101B000008400028F1D101E0012082E5002080E5B5
:101B10000010024070B504462546681E09498842F7
:101B200001D901200CE0681E074948610321081F04
:101B300000F0C8FB002004498861072008610020EC
:101B400070BD0000FFFFFF0000E000E0704770473D
:101B5000F8B504462068C569206806682807000FA4
:101B60000090009800280BD120202840002807D0A2
:101B700020203040002803D0204600F0B2FFF8BDFE
:101B800020688768009800287ED0F807C00F0028DA
:101B900004D1FF20213030400028F5D0E807C00FE5
:101BA00000280BD0FF2001303040002806D0012053
:101BB00021680862E06E01210843E06602202840A7
:101BC00000280AD0F807C00F002806D0022021689C
:101BD0000862E06E04210843E066042028400028E3
:101BE0000AD0F807C00F002806D004202168086238
:101BF000E06E02210843E0660820284000280ED04D
:101C000020203040002803D1F807C00F002806D05C
:101C1000082021680862E06E08210843E066E06E53
:101C2000002841D020202840002806D02020304025
:101C3000002802D0204600F054FFE06E0821084042
:101C4000002805D12068806840210840002826D05F
:101C5000204600F025FF20688068402108400028C9
:101C600019D020688068884321688860606E0028E9
:101C70000DD02648616E4863606EFFF705F90028B5
:101C800012D0606E416B00E00FE088470CE0204608
:101C9000FFF75DFF08E02046FFF759FF04E020460C
:101CA000FFF755FF0020E06669E7012000052840A6
:101CB000002811D001208005384000280CD00120D8
:101CC0000005216808622021692001556A2001551C
:101CD0002046FFF73BFF52E780202840002807D02E
:101CE00080203040002803D0204601F023F846E74A
:101CF00040202840002807D040203040002803D052
:101D0000204600F0DEFE3AE700BF38E7892A0008E7
:101D100010B50446002C01D1012010BDA069002897
:101D200000D000E000BF6920005D002805D100213F
:101D300068200155204600F02DF824216920015526
:101D4000206800684008400021680860204600F0D4
:101D50000FFF012800D1E0E7606A002802D020468A
:101D600000F0DAFD206840680921C9028843216833
:101D70004860206880682A2188432168886020683C
:101D800000680121084321680860204600F03CFEFD
:101D9000C3E7000010B586B00446142101A8FEF781
:101DA0001DFA1E492068884236D100BF1C48806950
:101DB0000121890308431A49886108468069012185
:101DC00089030840009000BF00BF00BF144840696D
:101DD000C900084312494861084640690121490485
:101DE0000840009000BF00BF032040020190022085
:101DF000029000200390032004900120059001A987
:101E00000920C006FFF76CF8002201211B20FFF714
:101E1000C9F91B20FFF7BAF906B010BD0038014020
:101E20000010024010B503466A20C05C20285AD139
:101E3000002901D0002A01D1012010BD0124240372
:101E40009868A04208D11869002805D1C807C00FBA
:101E5000002801D00120F0E700BF6820C05C012805
:101E600001D10220E9E701246820C45400BF59656C
:101E70005820C2525A20C25200BF24039868A04280
:101E80000AD11869002803D1184C5C20C45210E014
:101E9000FF245C20C4520CE09868002809D118691E
:101EA000002803D1FF245C20C45202E07F245C2080
:101EB000C45200BF0020D86622246A20C45400BF48
:101EC00000246820C45400BF18688068012420439F
:101ED0001C68A06018680068FF24213420431C6837
:101EE00020600020A9E70220A7E70000FF01000012
:101EF00010B50446314800783149324A1278885486
:101F000030480078401C2F49087000F017FA102361
:101F10002DA20021082000F09EFB10232EA20421F8
:101F2000082000F098FB10232EA20621402000F08C
:101F300092FB10232CA20621302000F08CFB2B4BAF
:101F4000FF2201321E492A4800F05AF81B48007847
:101F50002B2805D101202749087000201949087055
:101F600016480078212817D1012023490870002045
:101F70002249086009E000211148204A1268815472
:101F80001E480068401C1D4908601C480068FF2866
:101F9000F1D900200B490870084800782A2807D199
:101FA00000201549087013490870022000F0FEF95E
:101FB000012202490E48FFF735FF10BD2C02002018
:101FC000200100200300002073686F772072656392
:101FD000656976653A00000073686F772054656D17
:101FE000703A0000430000002E000000FFFF0000D8
:101FF0007C020020020000200100002028020020B6
:10200000FEB504460D4616461F4600200190692085
:10201000005D20286AD1002D01D0002E01D10120C1
:10202000FEBD01210903A068884208D1206900286B
:1020300005D1E807C00F002801D00120F0E700BF5C
:102040006820005D012801D10220E9E70121682014
:10205000015500BF0020E066212169200155FFF7EE
:1020600043F80190502006535220065325E0522099
:10207000005B401E81B25220015300970022802154
:102080002046019B00F08FFE002801D00320C7E707
:1020900001210903A06888420BD12069002808D1DA
:1020A0000295029D2888C005C00D21680885AD1CD9
:1020B00003E028786D1C216808855220005B002809
:1020C000D5DC0097002240212046019B00F06BFEEA
:1020D000002801D00320A3E720216920015500BF7B
:1020E00000216820015500BF002099E7022097E7F2
:1020F000704700BFFEE7000010B5012211020A4838
:10210000FEF7EBFF012251020748FEF7E6FF00222F
:10211000012149020448FEF7E0FF0022FF210131BE
:102120000148FEF7DAFF10BD0004004810B5012297
:1021300011020748FEF7D1FF00220121490204489D
:10214000FEF7CBFF012251020148FEF7C6FF10BD8A
:102150000004004810B5012211020548FEF7BDFF3A
:102160000022FF2101310248FEF7B7FF10BD000039
:102170000004004800B587B0142102A8FEF72EF82D
:1021800000BF0E4840690121490408430B494861DA
:1021900008464069012149040840019000BF00BF82
:1021A000F0200290002003900120049002A9092051
:1021B000C006FEF795FE07B000BD0000001002400B
:1021C00000B587B0142102A8FEF708F800BF114837
:1021D00040690121C90408430E4948610846406925
:1021E0000121C9040840019000BF00BF00228911ED
:1021F0000948FEF772FF012040030290012003907E
:1022000000200490059002A90348FEF769FE07B07C
:1022100000BD0000001002400008004800B587B073
:10222000142102A8FDF7DAFF00BF1D484069012113
:10223000890408431A494861084640690121890414
:102240000840019000BF00BF002204211548FEF79E
:1022500044FF002208211348FEF73FFF002210210F
:102260001048FEF73AFF002220210E48FEF735FF06
:10227000002240210B48FEF730FF00228021094850
:10228000FEF72BFFFC200290012003900020049019
:10229000059002A90348FEF723FE07B000BD000029
:1022A0000010024000040048FFF77EF900BFFEE77F
:1022B00010B5032211461B20FEF774FF1B20FEF70A
:1022C00065FF10BD10B5002819DA1A4A03071B0F65
:1022D000083B9B089B00D2588307DC0EFF23A340DA
:1022E0009A438B071B0E8407E40EA3401A43114B3D
:1022F0000407240F083CA408A4001A5118E00E4A51
:1023000003231B02D21883089B00D2588307DC0EDC
:10231000FF23A3409A438B071B0E8407E40EA340C0
:102320001A43054B032424021B198408A4001A51E4
:1023300010BD00001CED00E000E100E070B50024DD
:1023400015E02146B031C8B200F0A1F9002000F03C
:102350009EF9102000F09BF9002504E0002000F019
:10236000ACF9681CC5B2802DF8DB601CC4B2082C27
:10237000E7DB70BD70B5002415E02146B031C8B26E
:1023800000F085F9002000F082F9102000F07FF9BC
:10239000002504E0002000F090F9681CC5B2202D53
:1023A000F8DB601CC4B2082CE7DB70BD70B50446D6
:1023B0006000801EC5B215E02946B031C8B200F0F9
:1023C00066F9002000F063F9102000F060F90026A3
:1023D00004E0002000F071F9701CC6B2802EF8DB1A
:1023E000681CC5B26000A842E6DC70BD00B587B0CD
:1023F000142102A8FDF7F2FE00BF14484069012134
:10240000890408431149486108464069012189044B
:102410000840019000BF00BF012289120C48FEF75E
:102420005CFE012251020A48FEF757FE032000021B
:10243000029001200390002004900320059002A93F
:102440000348FEF74DFD07B000BD0000001002403C
:102450000004004810B5AE2000F019F9002000F08B
:1024600016F9102000F013F9402000F010F9812037
:1024700000F00DF9CF2000F00AF9A12000F007F9D3
:10248000C82000F004F9A62000F001F9A82000F00F
:10249000FEF83F2000F0FBF8D32000F0F8F8002011
:1024A00000F0F5F8D52000F0F2F8802000F0EFF809
:1024B000D92000F0ECF8F12000F0E9F8DA2000F083
:1024C000E6F8122000F0E3F8DB2000F0E0F840200E
:1024D00000F0DDF8202000F0DAF8022000F0D7F854
:1024E0008D2000F0D4F8142000F0D1F8A42000F0E2
:1024F000CEF8A62000F0CBF8FFF720FFAF2000F0C9
:10250000C6F810BD70B504460D462946B031C8B2B4
:1025100000F0BDF8F021214009110846103000F00C
:10252000B6F82007000F00F0B2F870BDFFB581B01B
:1025300007460D460026002403982038C6B27F2F98
:1025400002DD0027A81CC5B20498102822DC294609
:102550003846FFF7D7FF002407E031010919174A71
:10256000505C00F0AAF8601CC4B2082CF5DB681CB3
:10257000C1B23846FFF7C6FF002408E0310109194F
:1025800008310E4A505C00F098F8601CC4B2082C68
:10259000F4DB10E029463846FFF7B4FF002408E0DA
:1025A00006217143064A8918085D00F086F8601C10
:1025B000C4B2062CF4DB05B0F0BD000000430008F7
:1025C000D8400008FFB583B01E460C9C0020029046
:1025D00000253CE0701B401EC1B20A2001F030FC17
:1025E000014600900598FDF7B7FD0A210190FDF71F
:1025F000B3FD0F460298002815D1701EA84212DDC7
:10260000002F0ED1E00F0019401068430194039988
:102610004018C0B22346202200900499FFF786FF9D
:1026200013E001200290E00F00194010684301946C
:1026300003994018C0B2009038463030C2B22346E9
:1026400004990098FFF772FF00BF681CC5B2B5423D
:10265000C0DB07B0F0BDFFB581B004460F4615469C
:1026600000260FE0AA5D39462046049BFFF75EFF77
:1026700020460830C4B2782C02DD0024B81CC7B252
:10268000701CC6B2A85D0028ECD105B0F0BD10B535
:102690000446FFF731FD782000F0C6FBFFF75AFD36
:1026A000002000F0C1FBFFF755FD204600F0BCFB09
:1026B000FFF750FDFFF73AFD10BD10B50446FFF7D8
:1026C0001BFD782000F0B0FBFFF744FD402000F038
:1026D000ABFBFFF73FFD204600F0A6FBFFF73AFDFE
:1026E000FFF724FD10BD7047704710B5FEF702FDDF
:1026F00010BD00B595B0302109A8FDF76FFD002091
:102700000590069007900890019002900390049025
:102710001120099001200A900E9010200F900220A5
:102720001190C1031291C10413910021149109A8C1
:10273000FEF74AFF002801D0FEF78EF8072005902B
:1027400002200690002007900890012105A8FEF7BE
:10275000DDFD002801D0FEF77FF801200190002068
:10276000039001A8FEF728FD002801D0FEF774F8B9
:10277000FEF796FE15B000BD194800680121084318
:1027800017490860084640681649084014494860DF
:102790000846006814490840114908600846006866
:1027A0000121890488430E490860084640683F219A
:1027B000090488430A4948600846C06A00090001C4
:1027C000C8620846006BFF2114318843044908633E
:1027D0000846406B4008400048630020886070470E
:1027E000001002400CB8FF08FFFFF6FE00B589B0EC
:1027F0000020069007900890142101A8FDF7EEFC38
:102800002148224908600020486000211F4881605B
:10281000C160012101610421416100218161C16127
:102820000121016200214162FF21C2318162002148
:10283000C162016301214163FEF756F9002801D00E
:10284000FEF70AF80020069001200003079000041C
:10285000089006A90D48FEF76DF8002801D0FDF795
:10286000FBFF03208005019000200290039004905C
:10287000059001A90548FDF7F3FF002801D0FDF7F9
:10288000EBFF09B000BD000000240140EC02002075
:1028900008B500BF1D4840690121890508431B494F
:1028A000486108464069012189050840009000BF41
:1028B00000BF00BF154840694911084313494861EA
:1028C00008464069012149040840009000BF00BF4C
:1028D0000F48104908604B20C001486000210D4896
:1028E0008160C160032101610C214161002181618E
:1028F000C16101620020074948620846FFF708FAF3
:10290000002801D0FDF7A8FF08BD0000001002401C
:10291000003801407C020020818CC907C90F0029C2
:1029200008D001684968012252049143826A114328
:10293000026851600222416A1140002907D00168F3
:102940004968D2039143C26A11430268516004226C
:10295000416A1140002907D0016849681204914377
:10296000026B1143026851600822416A114000293C
:1029700007D00168496812039143426B1143026812
:1029800051601022416A1140002907D0016889680E
:1029900012029143826B1143026891602022416AC6
:1029A0001140002907D00168896812029143C26B67
:1029B0001143026891604022416A1140002915D0FC
:1029C0000168496892039143026C114302685160A7
:1029D00001221205016C914208D101684968032265
:1029E00052059143426C1143026851608022416A52
:1029F0001140002907D00168496812039143826C95
:102A0000114302685160704738B504460025002024
:102A1000E066FEF769FB054619492068884223D124
:102A2000206800680821084008280BD115482B466B
:102A3000002289040090204600F0B5F9002801D05A
:102A4000032038BD206800680421084004280BD109
:102A50000C482B46002209050090204600F0A3F9FF
:102A6000002801D00320ECE72021692001556A20CD
:102A7000015500BF00216820015500BF0020E0E79C
:102A800000380140FFFFFF0170B505466C6A002168
:102A90005A200153522001532046FFF758F870BDC9
:102AA00001680968FF2221329143026811600168C0
:102AB0008968490849000268916020226A210A5405
:102AC000704710B50446206800684021884321689B
:102AD00008602021692001552046FFF709FB0020EE
:102AE00010BDF8B504465C20075B6A20005D222813
:102AF00036D12068858C01210903A06888420AD15B
:102B00002069002807D1666D284638403080606D06
:102B1000801C606505E0F8B22840626D511C61655B
:102B200010705A20005B401E81B25A2001530029C8
:102B300014D120680068FF21213188432168086092
:102B400020688068400840002168886020216A2051
:102B500001552046FFF7CCF90020F8BD0020FCE726
:102B60002068806908210843216888610220F4E711
:102B7000FEB5044600251026002700200290019093
:102B80002169A068084361690843E1690843054673
:102B9000206800686249084028432168086020686E
:102BA0004068032109038843E168084321684860BD
:102BB000216AA06908430546206880680B21090244
:102BC000884328432168886000BF5648006B80070F
:102BD000800F002806D0012808D0022808D003283A
:102BE00008D101E0002607E0022605E0042603E004
:102BF000082601E0102600BF00BF00BF0121C90365
:102C0000E069884249D1042E20D004DC002E07D090
:102C1000022E32D111E0082E25D0102E2DD12DE01C
:102C2000FEF74EFC4000616849084018009061685A
:102C3000FDF792FA80B2029023E061684A083A4BAD
:102C4000D018FDF789FA80B202901AE0FEF74AFC2C
:102C5000400061684908401800906168FDF77CFAFF
:102C600080B202900DE061684A0801231B04D0186D
:102C7000FDF772FA80B2029003E000BF01200190DC
:102C800000BF00BF29490298084007460298000784
:102C9000400F07432068C76040E0042E21D004DCC9
:102CA000002E07D0022E34D111E0082E26D0102E8F
:102CB0002FD12FE0FEF704FC61684908401800900E
:102CC0006168FDF749FA80B22168C86025E0616853
:102CD0004A08174BD018FDF73FFA80B22168C86048
:102CE0001BE0FEF7FFFB616849084018009061682F
:102CF000FDF732FA80B22168C8600EE061684A08C8
:102D00000123DB03D018FDF727FA80B22168C860E1
:102D100003E000BF0120019000BF00BF0198FEBD8D
:102D2000F369FFFF001002400024F400F0FF0000F0
:102D300000127A0001466920405C212831D15220DE
:102D4000405A00280DD108680068802398430B681A
:102D5000186008680068402318430B68186000205A
:102D6000704701231B03886898420CD1086900282A
:102D700009D1CA6C1088C005C00D0B681885C86CD5
:102D8000801CC86405E0CB6C581CC86418780B68BC
:102D900018855220405A401E83B2522043520020D0
:102DA000DEE70220DCE7FFB581B004460D4617469A
:102DB0000A9E24E0701C002821D0002E05D0FEF7CA
:102DC00093F90499401AB04219D920680068FF218C
:102DD000A13188432168086020688068400840006D
:102DE000216888602021692001556A20015500BFB3
:102DF00000216820015500BF032005B0F0BD206808
:102E0000C0692840A84201D1012000E00020B8425A
:102E1000D0D00020F1E7000010B50248FEF798FE80
:102E200010BD00007C020020F8B505462C460022AB
:102E3000FF2101311348FEF750F900261FE0274615
:102E400080200740802F05D1012281000D48FEF728
:102E500044F905E00022012149020A48FEF73DF944
:102E60006006040E012211020648FEF736F9002220
:102E7000FF2101310348FEF730F9701CC6B2082E5D
:102E8000DDDBF8BD000400480FB410B503A9044B06
:102E9000044A029800F02EF810BC08BC04B0184791
:102EA0007D3000081C0100202021020C01D01021DF
:102EB0001046020A01D010460839020901D0104616
:102EC000091F820801D01046891E420801D0881EC1
:102ED0007047081A704702E008C8121F08C1002A8C
:102EE000FAD170477047002001E001C1121F002A8B
:102EF000FBD17047FFB58DB00446002506E02528BC
:102F00000AD0109A0F999047641C6D1C20780028F5
:102F1000F5D1284611B0F0BD00270121484A00979D
:102F200000E00743641C23780846203B9840104289
:102F3000F7D120782E2817D1042007436078641C2D
:102F40002A280CD10E98641C02C800910E900BE048
:102F500000990A22514330394018641C00902078AF
:102F6000014630390929F3D920780028D1D06428C6
:102F700008D0692806D075281ED0109A0F9990475E
:102F80006D1C5BE00A200E99019001C90E9100288A
:102F900002DA40422D2102E0390504D52B216A4690
:102FA0001172012103E0F90704D02021F7E70BAEED
:102FB0000B910DE00021FAE70A200E99019001C95A
:102FC0000E91F7E70199FDF7C7F83031761E3170A1
:102FD0000028F7D103A8801B20300190780701D585
:102FE000009801E0012000900199884201DD401A1B
:102FF00000E000200027009006E002A8109AC05DC3
:103000000F9990476D1C7F1C0B988742F5DB04E0FD
:10301000109A30200F9990476D1C0099481E00901F
:103020000029F5DC05E03078109A761C0F9990475E
:103030006D1C0199481E01900029F4DC641C65E7B1
:10304000092801000146CA008A180B4B5A61002268
:103050009A6101221A6100BF074A1069C207D20FA4
:10306000002A04D0012212040240002AF4D00022D7
:10307000014B1A619A61704700E000E013B50C46FD
:10308000034B012269460348FEF7BAFF00981CBDB6
:10309000FFFF00007C02002038B55D480078012861
:1030A00004D1FFF74BF9002059490870102359A2A9
:1030B00000212020FFF7CFFA102358A20221002080
:1030C000FFF7C9FA102356A202214020FFF7C3FAE6
:1030D000102354A206210020FFF7BDFA102350A2AE
:1030E00006214020FFF7B7FA10234FA2062128201F
:1030F000FFF7B1FA10234DA204210020FFF7ABFA2D
:1031000010234BA204212820FFF7A5FA102349A27F
:1031100004215020FFF79FFA102001230090464819
:10312000027804211820FFF74DFA102001230090A7
:103130004248027804214020FFF744FA102001237E
:1031400000903F48027804216820FFF73BFA3D4891
:10315000FDF75EFE64213B48FDF7E8FD002813D132
:103160003848FDF7BDFC0446214637A0FFF78CFE2A
:103170003448FDF7B5FC0446102004232246022102
:1031800000901820FFF71EFA3548FFF75BFF10206C
:10319000022300903348027806216020FFF712FADC
:1031A0001020042300903048022102686020FFF7BD
:1031B00009FAFDF72DFA2D49088064212B4A0020D9
:1031C000105EFCF7DFFF2A4801600A21274A002031
:1031D000105EFCF7D7FF044610200223224606218A
:1031E00000901820FFF7EEF91020012300902048EE
:1031F000062102682E20FFF7E5F940210920C006CC
:10320000FDF75EFF002802D101200149087038BD9A
:10321000300200204D61696E205549005A4400007B
:1032200053657400540000002E0000004D313A0038
:103230004D323A004D333A00310200203202002074
:1032400033020020EC020020746865206164632072
:1032500076616C75652069732025640D0A00000095
:1032600050C3000034020020380200202002002059
:103270002402002010B51F480078012804D1FFF770
:103280005DF800201B490870FFF774F810231AA29C
:1032900000212820FFF7DFF9102319A202212020A6
:1032A000FFF7D9F9102319A202210020FFF7D3F963
:1032B000102317A204212020FFF7CDF9102316A216
:1032C00006212020FFF7C7F940210920C006FDF79D
:1032D000F7FE002802D101200649087020210920AC
:1032E000C006FDF7EDFE002802D10120014908705B
:1032F00010BD00003002002053657474696E6700D1
:1033000054656D7020536574000000002D3E000070
:103310005A442053657400004D6F746F72205465D9
:103320007374000010B51A480078012804D1FFF723
:1033300005F8002016490870FFF71CF8102315A2A5
:1033400000212820FFF787F9102314A20221202052
:10335000FFF781F9102314A204210020FFF77BF965
:10336000102312A204212020FFF775F9102311A2C7
:1033700006212020FFF76FF940210920C006FDF744
:103380009FFE002802D101200149087010BD0000F5
:103390003002002053657474696E670054656D7067
:1033A00020536574000000002D3E00005A44205355
:1033B000657400004D6F746F722054657374000063
:1033C00010B51A480078012804D1FEF7B7FF002095
:1033D00016490870FEF7CEFF102315A20021282001
:1033E000FFF739F9102314A202212020FFF733F947
:1033F000102314A206210020FFF72DF9102312A29A
:1034000004212020FFF727F9102311A206212020F4
:10341000FFF721F910210920C006FDF751FE002811
:1034200002D101200149087010BD000030020020C7
:1034300053657474696E670054656D7020536574CC
:10344000000000002D3E00005A4420536574000027
:103450004D6F746F722054657374000010B5FEF7E1
:1034600089FF19480078012804D1FEF767FF002082
:1034700015490870102315A200212820FFF7EBF84A
:10348000102314A202212020FFF7E5F8102313A235
:1034900006210020FFF7DFF8102311A204212020CD
:1034A000FFF7D9F8102311A206212020FFF7D3F847
:1034B00040210920C006FDF703FE002802D10120AB
:1034C0000149087010BD000030020020536574747B
:1034D000696E67005A442053657400002D3E000059
:1034E0004D6F746F722054657374000045584954D1
:1034F0000000000038B54A480078012804D1FEF7E2
:103500001DFF002046490870FEF734FF102345A236
:1035100000212820FFF79FF8102345A20221202038
:10352000FFF799F8FDF774F8444908806421434A8D
:103530000020105EFCF726FE414801600A213F4A48
:103540000020105EFCF71EFE0446102002232246D7
:10355000194600906020FFF735F8102339A20221A8
:103560007020FFF778F810200123009034480221E2
:1035700002687820FFF726F8102333A204210020E8
:10358000FFF769F8102331A204212020FFF763F828
:103590001020022300902F48027804216020FFF7BA
:1035A00011F810232CA206212020FFF754F8402107
:1035B0000920C006FDF784FD002802D1012018492A
:1035C000087020210920C006FDF77AFD00280CD1E3
:1035D00020480078401C1F49087000BF20210920A6
:1035E000C006FDF76DFD0028F8D010210920C006A7
:1035F000FDF766FD002812D116480078401E1549D7
:10360000087008460078012801DA0120087000BF20
:1036100010210920C006FDF753FD0028F8D038BD61
:103620003002002054656D702053455400000000A6
:1036300054656D704E4F573A000000002002002084
:10364000240200202E0000002D3E00004578745416
:10365000656D70003402002050456E74657232450D
:103660005849540038B544480078012804D1FEF781
:1036700065FE002040490870FEF77CFE10233FA243
:1036800000212820FEF7E7FF10233EA20221202080
:10369000FEF7E1FF10233DA204210020FEF7DBFF2F
:1036A0003B48FDF7B5FB64213948FDF73FFB002897
:1036B00013D13748FDF714FA0446214635A0FFF729
:1036C000E3FB3348FDF70CFA04461020042322469E
:1036D000022100906020FEF775FF102333A2042121
:1036E0002020FEF7B8FF102004230090314819462F
:1036F00002685820FEF766FF10232FA20621202023
:10370000FEF7A9FF40210920C006FDF7D9FC0028DB
:1037100002D101201849087020210920C006FDF7B8
:10372000CFFC00280CD123480068323021490860C2
:1037300000BF20210920C006FDF7C2FC0028F8D0F8
:1037400010210920C006FDF7BBFC002812D1194842
:10375000006832381749086008460068642801D2BA
:103760006420086000BF10210920C006FDF7A8FCF6
:103770000028F8D038BD0000300200205A44205301
:10378000657400005A442D4E4F573A002D3E0000FC
:10379000EC020020746865206164632076616C75BA
:1037A000652069732025640D0A0000005A442D53DA
:1037B000455400003802002050456E746572324551
:1037C0005849540010B540480078012804D1FEF74C
:1037D000B5FD00203C490870FEF7CCFD10233BA24C
:1037E00000212820FEF737FF10233BA202212020D2
:1037F000FEF731FF10233AA202210020FEF72BFF33
:10380000102338A204212020FEF725FF102337A221
:1038100006212020FEF71FFF36480078002806D139
:10382000102335A202216020FEF715FF05E01023CA
:1038300032A202216020FEF70EFF314800780028F6
:1038400006D110232CA204216020FEF704FF05E01E
:1038500010232AA204216020FEF7FDFE29480078EB
:10386000002806D1102324A206216020FEF7F3FED3
:1038700005E0102321A206216020FEF7ECFE402186
:103880000920C006FDF71CFC002812D11948007859
:10389000002803D101201749087002E000201549D3
:1038A000087000BF40210920C006FDF709FC002870
:1038B000F8D020210920C006FDF702FC002802D123
:1038C00001200149087010BD300200204D6F746F57
:1038D00072205365540000004D6F746F72203100E8
:1038E0002D3E00004D6F746F722032004D6F746F6B
:1038F00072203300310200204F4646004F4E200018
:10390000320200203302002010B53B480078012825
:1039100004D1FEF713FD002037490870FEF72AFD99
:10392000102336A200212820FEF795FE102336A290
:1039300002212020FEF78FFE102335A20421202033
:10394000FEF789FE102334A204210020FEF783FE37
:10395000102332A206212020FEF77DFE3148007898
:10396000002806D1102330A202216020FEF773FE4A
:1039700005E010232DA202216020FEF76CFE2C48EA
:103980000078002806D1102327A204216020FEF72A
:1039900062FE05E0102325A204216020FEF75BFEF5
:1039A00024480078002806D110231FA20621602099
:1039B000FEF751FE05E010231CA206216020FEF751
:1039C0004AFE40210920C006FDF77AFB002812D1EB
:1039D00017480078002803D101201549087002E03B
:1039E00000201349087000BF40210920C006FDF7E0
:1039F00067FB0028F8D010BD300200204D6F746FB7
:103A000072205365540000004D6F746F72203100B6
:103A10004D6F746F722032002D3E00004D6F746F39
:103A200072203300310200204F4646004F4E2000E6
:103A3000320200203302002010B5404800780128EF
:103A400004D1FEF77BFC00203C490870FEF792FC95
:103A500010233BA200212820FEF7FDFD10233BA2EE
:103A600002212020FEF7F7FD10233AA20421202096
:103A7000FEF7F1FD102339A206212020FEF7EBFD11
:103A8000102338A206210020FEF7E5FD3648007815
:103A9000002806D1102335A202216020FEF7DBFDAD
:103AA00005E0102332A202216020FEF7D4FD314848
:103AB0000078002806D110232CA204216020FEF7F4
:103AC000CAFD05E010232AA204216020FEF7C3FDF1
:103AD00029480078002806D1102324A2062160205E
:103AE000FEF7B9FD05E0102321A206216020FEF7B4
:103AF000B2FD40210920C006FDF7E2FA002812D1EC
:103B00001D480078002803D101201B49087002E0FD
:103B100000201949087000BF40210920C006FDF7A8
:103B2000CFFA0028F8D010210920C006FDF7C8FA06
:103B3000002802D101200149087010BD3002002088
:103B40004D6F746F72205365540000004D6F746F99
:103B5000722031004D6F746F722032004D6F746FA0
:103B6000722033002D3E0000310200204F464600F7
:103B70004F4E2000320200203302002010B52B48A7
:103B80000078012804D1FEF7D9FB002027490870EE
:103B9000FEF7F0FB102326A200212820FEF75BFD94
:103BA000102326A202212020FEF755FD102325A276
:103BB00004212020FEF74FFD102324A206212020FF
:103BC000FEF749FD102323A206210020FEF743FD46
:103BD00021480078002806D1102320A2022160206D
:103BE000FEF739FD05E010231DA202216020FEF73B
:103BF00032FD1C480078002806D1102317A20421AA
:103C00006020FEF728FD05E0102315A204216020A6
:103C1000FEF721FD40210920C006FDF751FA0028DA
:103C200002D101200149087010BD000030020020BF
:103C30004D6F746F72205365540000004D6F746FA8
:103C4000722032004D6F746F722033004558495412
:103C5000000000002D3E0000320200204F464600CA
:103C60004F4E200033020020FDF74CFAFEF741FDD5
:103C7000FEF70EFEFEF71CFBFEF7A2FAFEF7CEFAE9
:103C8000FCF762FCFEF776FAFCF7FCFCFCF770FD33
:103C9000FF2101310920C006FDF71BFA5D48FFF73F
:103CA000D1F95C48FFF7CEF9FF2101310920C006A8
:103CB000FDF70FFA5748FFF7C5F95648FFF7C2F965
:103CC000FEF794FBFEF7C6FB012251035248FDF7B5
:103CD00004FAFEF78BFD012250495148FEF7A2F885
:103CE000FEF72CFB95E010210920C006FDF7E8F94E
:103CF00000280DD020210920C006FDF7E1F9002899
:103D000006D040210920C006FDF7DAF9002848D185
:103D10007D200001FFF796F920210920C006FDF75C
:103D2000CFF900280FD13F480078C0003E49401825
:103D300040783C49087000BF20210920C006FDF7EB
:103D4000BFF90028F8D010210920C006FDF7B8F906
:103D500000280FD133480078C000334940188078DC
:103D60003049087000BF10210920C006FDF7A8F9EE
:103D70000028F8D040210920C006FDF7A1F900284D
:103D80000FD128480078C00027494018C07825493D
:103D9000087000BF40210920C006FDF791F90028F6
:103DA000F8D020480078C0001F49401840681F49DB
:103DB00008600846006880471D480078012805D142
:103DC000012240211B48FDF788F904E00022402130
:103DD0001848FDF782F918480078012805D101221A
:103DE00010211448FDF779F904E000221021114850
:103DF000FDF773F911480078012805D1012204214B
:103E00000C48FDF76AF904E0002204210948FDF797
:103E100064F968E750C30000000800482C02002045
:103E20007C020020040000200C000020080000207C
:103E3000310200200004004832020020330200203A
:103E400010B50246012002E00346534318460B46D4
:103E50004C1EE1B2002BF7D110BD00000A480068EB
:103E60000068002801D1012000E00020002804D0D3
:103E70000020C0430549086005E003480068C068A9
:103E80000068024908607047400200206C02002070
:103E90007047000018480068002803D00120174927
:103EA000086027E00020154908601548016800E017
:103EB000491E14204843134A1058002801D10120FC
:103EC00000E000200028F3D114224A430D4BD01803
:103ED000426852684260024608324368934202D107
:103EE0004268526842604268D268074B1A600448D0
:103EF000016000BF704700007802002060020020CF
:103F000054020020380300203C02002010B5FCF7CA
:103F1000EDF8044600F00CF8002803D0012000075B
:103F2000024948602046FCF7E5F810BD00ED00E0CE
:103F3000F8B5002000905748006800287ED1564808
:103F40000068451C54480560002D0FD15348076890
:103F5000534800685149086051480760514800685B
:103F6000401C50490860FFF779FF00BF4E480068C9
:103F7000854275D300BF494800680068002801D118
:103F8000012000E00020002804D00020C043464962
:103F9000086064E041480068C068C4686668B5426B
:103FA00002D2414806605AE06069E268A1688A600E
:103FB000A268E1684A60211D42688A4201D1E16835
:103FC0004160002262610168491E0160A06A002808
:103FD00013D0A06A226AE1698A60E269216A4A60B4
:103FE0002146183142688A4201D1216A416000228B
:103FF000A2620168491E016000BF2C49E06A09689D
:10400000884202D92949E06A08601422E16A5143D2
:10401000274A89184868A0608268E260211D82688A
:10402000516081601422E16A5143214A8A18626119
:104030001422E16A51431E4A515800E022E0491C13
:104040001423E26A5A431A4B99501A49E06A0968E4
:10405000C96A88428FD9012000908CE700E000BF38
:1040600014480068C06A14214843114908580128BF
:1040700001D90120009010480068002801D00120DB
:10408000009004E00D480068401C0C49086000984E
:10409000F8BD0000780200205002002040020020FD
:1040A00044020020640200206C0200205402002020
:1040B000380300203C020020600200205C02002047
:1040C00000000000000000000102030406070809C8
:1040D00000000000010203040000000000000000D6
:1040E000002F000000000700070000147F147F1459
:1040F00000242A7F2A1200626408132300364955DF
:10410000225000000503000000001C2241000000B6
:1041100041221C000014083E08140008083E08084C
:10412000000000A0600000080808080800006060A7
:104130000000002010080402003E5149453E0000E6
:10414000427F4000004261514946002141454B31C8
:10415000001814127F10002745454539003C4A4994
:104160004930000171090503003649494936000606
:104170004949291E0000363600000000563600006E
:1041800000081422410000141414141400004122E9
:10419000140800020151090600324959513E007CC1
:1041A0001211127C007F49494936003E41414122AB
:1041B000007F4141221C007F49494941007F090994
:1041C0000901003E4149497A007F0808087F000044
:1041D000417F4100002040413F01007F08142241FF
:1041E000007F40404040007F020C027F007F0408B7
:1041F000107F003E4141413E007F09090906003E13
:104200004151215E007F091929460046494949313B
:104210000001017F0101003F4040403F001F20405E
:10422000201F003F4038403F00631408146300071C
:104230000870080700615149454300007F41410073
:1042400000552A552A55000041417F000004020113
:1042500002040040404040400000010204000020F1
:1042600054545478007F484444380038444444202F
:1042700000384444487F00385454541800087E09DC
:1042800001020018A4A4A47C007F080404780000A4
:10429000447D4000004080847D00007F1028440061
:1042A0000000417F4000007C04180478007C080472
:1042B000047800384444443800FC242424180018AE
:1042C000242418FC007C080404080048545454209A
:1042D00000043F444020003C4040207C001C204023
:1042E000201C003C4030403C004428102844001C66
:1042F000A0A0A07C004464544C441414141414145E
:1043000000000000000000000000000000000000AD
:10431000000000F800000000000000333000000042
:1043200000100C06100C0600000000000000000049
:1043300040C07840C0784000043F04043F040400BB
:10434000007088FC08300000001820FF211E0000CB
:10435000F008F000E018000000211C031E211E00E0
:1043600000F00888700000001E2123241927211066
:1043700010160E0000000000000000000000000009
:10438000000000E0180402000000000718204000B0
:1043900000020418E00000000040201807000000A0
:1043A000404080F0804040000202010F0102020004
:1043B000000000F0000000000101011F01010100E8
:1043C000000000000000000080B07000000000004D
:1043D00000000000000000000001010101010101D6
:1043E000000000000000000000303000000000006D
:1043F0000000000080601804006018060100000042
:1044000000E010080810E000000F102020100F003E
:10441000001010F8000000000020203F20200000C5
:10442000007008080888700000302824222130001D
:1044300000300888884830000018202020110E0025
:104440000000C02010F8000000070424243F2400CE
:1044500000F80888880808000019212020110E00A3
:1044600000E0108888180000000F112020110E00B5
:1044700000380808C83808000000003F00000000AD
:104480000070880808887000001C222121221C006E
:1044900000E010080810E0000000312222110F0097
:1044A000000000C0C000000000000030300000002C
:1044B000000000800000000000008060000000009C
:1044C00000008040201008000001020408102000B5
:1044D0004040404040404000040404040404040000
:1044E0000008102040800000002010080402010095
:1044F000007048080808F000000000303601000095
:10450000C030C828E810E0000718272423140B0047
:104510000000C038E0000000203C230202273820C1
:1045200008F8888888700000203F202020110E00A5
:10453000C03008080808380007182020201008009C
:1045400008F808080810E000203F202020100F0085
:1045500008F88888E8081000203F20202320180051
:1045600008F88888E8081000203F200003000000B9
:10457000C03008080838000007182020221E02005A
:1045800008F808000008F808203F210101213F2019
:10459000000808F8080800000020203F2020000044
:1045A00000000808F8080800C08080807F00000034
:1045B00008F888C028180800203F2001263820006D
:1045C00008F8080000000000203F202020203000D4
:1045D00008F8F800F8F80800203F003F003F2000EE
:1045E00008F830C00008F808203F200007183F00F6
:1045F000E01008080810E0000F10202020100F0025
:1046000008F808080808F000203F21010101000017
:10461000E01008080810E0000F18242438504F005C
:1046200008F8888888887000203F2000030C30201C
:1046300000708808080838000038202121221C005A
:10464000180808F8080818000000203F20000000A3
:1046500008F808000008F808001F202020201F008C
:104660000878880000C83808000007380E010000EC
:10467000F80800F80008F800033C0700073C0300B6
:10468000081868808068180820302C03032C30201C
:104690000838C800C83808000000203F200000008B
:1046A00010080808C83808002038262120201800E3
:1046B000000000FE020202000000007F40404000B7
:1046C000000C30C000000000000000010638C000EF
:1046D00000020202FE000000004040407F00000097
:1046E00000000402020204000000000000000000BC
:1046F00000000000000000008080808080808080BA
:1047000000020204000000000000000000000000A1
:1047100000008080808000000019242222223F2097
:1047200008F8008080000000003F112020110E00DA
:104730000000008080800000000E11202020110069
:10474000000000808088F800000E112020103F201B
:104750000000808080800000001F2222222213009F
:10476000008080F0888888180020203F20200000EA
:104770000000808080808000006B9494949360009F
:1047800008F8008080800000203F210000203F20AA
:1047900000809898000000000020203F20200000AA
:1047A000000000809898000000C08080807F00009A
:1047B00008F8000080808000203F24022D30200077
:1047C000000808F8000000000020203F2020000022
:1047D0008080808080808000203F20003F20003F3C
:1047E0008080008080800000203F210000203F204A
:1047F0000000808080800000001F202020201F00FB
:10480000808000808000000080FFA12020110E0029
:104810000000008080808000000E112020A0FF801A
:10482000808080008080800020203F2120000100C7
:10483000000080808080800000332424242419001C
:10484000008080E0808000000000001F2020000029
:104850008080000000808000001F202020103F206A
:10486000808080000080808000010E3008060100FA
:1048700080800080008080800F300C030C300F009F
:1048800000808000808080000020312E0E312000CA
:10489000808080000080808080818E7018060100FA
:1048A00000808080808080000021302C2221300018
:1048B00000000000807C020200000000003F404039
:1048C00000000000FF00000000000000FF000000EA
:1048D0000002027C800000000040403F0000000019
:1048E00000060101020204040000000000000000B4
:1048F00010490008000000207C0200003804000875
:104900009C4900087C020020A4070000E62E000855
:1049100001102C01993000080104020575322808A5
:104920000201030625332D0803020407C1330008E2
:104930000403012B5D34000805050501F534280842
:104940000606060265362808070A0807C53728083C
:10495000080709080939280809080A09393A0A9E86
:10496000080A0907017D3B000833127A9014CAFD3A
:10497000BEDDD2E7B3F628B4F3D3DA323536290DEB
:104980000A0DFF726561647920726563697665312D
:0C499000427342014219033B480D821F94
:04000005080000B13E
:00000001FF
